{
  "_format": "hh3-artifact-1",
  "contractName": "AttendanceSystem",
  "sourceName": "contracts/AttendanceSystem.sol",
  "abi": [
    {
      "inputs": [],
      "stateMutability": "nonpayable",
      "type": "constructor"
    },
    {
      "anonymous": false,
      "inputs": [
        {
          "indexed": false,
          "internalType": "uint256",
          "name": "sessionId",
          "type": "uint256"
        },
        {
          "indexed": false,
          "internalType": "address",
          "name": "student",
          "type": "address"
        }
      ],
      "name": "AttendanceMarked",
      "type": "event"
    },
    {
      "anonymous": false,
      "inputs": [
        {
          "indexed": false,
          "internalType": "uint256",
          "name": "sessionId",
          "type": "uint256"
        }
      ],
      "name": "SessionClosed",
      "type": "event"
    },
    {
      "anonymous": false,
      "inputs": [
        {
          "indexed": false,
          "internalType": "uint256",
          "name": "sessionId",
          "type": "uint256"
        },
        {
          "indexed": false,
          "internalType": "string",
          "name": "subject",
          "type": "string"
        }
      ],
      "name": "SessionCreated",
      "type": "event"
    },
    {
      "anonymous": false,
      "inputs": [
        {
          "indexed": false,
          "internalType": "address",
          "name": "student",
          "type": "address"
        },
        {
          "indexed": false,
          "internalType": "string",
          "name": "name",
          "type": "string"
        }
      ],
      "name": "StudentRegistered",
      "type": "event"
    },
    {
      "inputs": [
        {
          "internalType": "uint256",
          "name": "",
          "type": "uint256"
        },
        {
          "internalType": "address",
          "name": "",
          "type": "address"
        }
      ],
      "name": "attendance",
      "outputs": [
        {
          "internalType": "bool",
          "name": "",
          "type": "bool"
        }
      ],
      "stateMutability": "view",
      "type": "function"
    },
    {
      "inputs": [
        {
          "internalType": "uint256",
          "name": "_sessionId",
          "type": "uint256"
        },
        {
          "internalType": "address",
          "name": "_student",
          "type": "address"
        }
      ],
      "name": "checkAttendance",
      "outputs": [
        {
          "internalType": "bool",
          "name": "",
          "type": "bool"
        }
      ],
      "stateMutability": "view",
      "type": "function"
    },
    {
      "inputs": [
        {
          "internalType": "uint256",
          "name": "_sessionId",
          "type": "uint256"
        }
      ],
      "name": "closeSession",
      "outputs": [],
      "stateMutability": "nonpayable",
      "type": "function"
    },
    {
      "inputs": [
        {
          "internalType": "string",
          "name": "_subject",
          "type": "string"
        }
      ],
      "name": "createSession",
      "outputs": [],
      "stateMutability": "nonpayable",
      "type": "function"
    },
    {
      "inputs": [
        {
          "internalType": "uint256",
          "name": "_sessionId",
          "type": "uint256"
        }
      ],
      "name": "getSession",
      "outputs": [
        {
          "internalType": "string",
          "name": "",
          "type": "string"
        },
        {
          "internalType": "bool",
          "name": "",
          "type": "bool"
        }
      ],
      "stateMutability": "view",
      "type": "function"
    },
    {
      "inputs": [
        {
          "internalType": "address",
          "name": "_student",
          "type": "address"
        }
      ],
      "name": "getStudent",
      "outputs": [
        {
          "internalType": "string",
          "name": "",
          "type": "string"
        },
        {
          "internalType": "bool",
          "name": "",
          "type": "bool"
        }
      ],
      "stateMutability": "view",
      "type": "function"
    },
    {
      "inputs": [
        {
          "internalType": "uint256",
          "name": "_sessionId",
          "type": "uint256"
        }
      ],
      "name": "markAttendance",
      "outputs": [],
      "stateMutability": "nonpayable",
      "type": "function"
    },
    {
      "inputs": [],
      "name": "owner",
      "outputs": [
        {
          "internalType": "address",
          "name": "",
          "type": "address"
        }
      ],
      "stateMutability": "view",
      "type": "function"
    },
    {
      "inputs": [
        {
          "internalType": "address",
          "name": "_student",
          "type": "address"
        },
        {
          "internalType": "string",
          "name": "_name",
          "type": "string"
        }
      ],
      "name": "registerStudent",
      "outputs": [],
      "stateMutability": "nonpayable",
      "type": "function"
    },
    {
      "inputs": [],
      "name": "sessionCount",
      "outputs": [
        {
          "internalType": "uint256",
          "name": "",
          "type": "uint256"
        }
      ],
      "stateMutability": "view",
      "type": "function"
    },
    {
      "inputs": [
        {
          "internalType": "uint256",
          "name": "",
          "type": "uint256"
        }
      ],
      "name": "sessions",
      "outputs": [
        {
          "internalType": "string",
          "name": "subject",
          "type": "string"
        },
        {
          "internalType": "bool",
          "name": "active",
          "type": "bool"
        }
      ],
      "stateMutability": "view",
      "type": "function"
    },
    {
      "inputs": [
        {
          "internalType": "address",
          "name": "",
          "type": "address"
        }
      ],
      "name": "students",
      "outputs": [
        {
          "internalType": "string",
          "name": "name",
          "type": "string"
        },
        {
          "internalType": "bool",
          "name": "registered",
          "type": "bool"
        }
      ],
      "stateMutability": "view",
      "type": "function"
    }
  ],
  "bytecode": "0x608060405234801561001057600080fd5b50336000806101000a81548173ffffffffffffffffffffffffffffffffffffffff021916908373ffffffffffffffffffffffffffffffffffffffff1602179055506116af806100606000396000f3fe608060405234801561001057600080fd5b50600436106100b45760003560e01c806373cd83361161007157806373cd8336146101b357806383c4b7a3146101d15780638da5cb5b14610202578063a3bfdf4714610220578063a6c807a91461023c578063ade4f8a21461026d576100b4565b8063100bff20146100b957806312abb5bb146100e957806316598342146101055780633d2d866314610121578063402ff0db146101515780636b7b44d714610182575b600080fd5b6100d360048036038101906100ce9190610d2d565b610289565b6040516100e09190610d88565b60405180910390f35b61010360048036038101906100fe9190610ee9565b6102b8565b005b61011f600480360381019061011a9190610f32565b610402565b005b61013b60048036038101906101369190610d2d565b61055d565b6040516101489190610d88565b60405180910390f35b61016b60048036038101906101669190610f8e565b6105c5565b60405161017992919061103a565b60405180910390f35b61019c6004803603810190610197919061106a565b6106ab565b6040516101aa92919061103a565b60405180910390f35b6101bb6107bd565b6040516101c891906110a6565b60405180910390f35b6101eb60048036038101906101e69190610f8e565b6107c3565b6040516101f992919061103a565b60405180910390f35b61020a61087c565b60405161021791906110d0565b60405180910390f35b61023a60048036038101906102359190610f8e565b6108a0565b005b6102566004803603810190610251919061106a565b610997565b60405161026492919061103a565b60405180910390f35b61028760048036038101906102829190610f8e565b610a50565b005b60046020528160005260406000206020528060005260406000206000915091509054906101000a900460ff1681565b60008054906101000a900473ffffffffffffffffffffffffffffffffffffffff1673ffffffffffffffffffffffffffffffffffffffff163373ffffffffffffffffffffffffffffffffffffffff1614610346576040517f08c379a000000000000000000000000000000000000000000000000000000000815260040161033d90611137565b60405180910390fd5b6001600081548092919061035990611186565b919050555060405180604001604052808281526020016001151581525060036000600154815260200190815260200160002060008201518160000190816103a091906113da565b5060208201518160010160006101000a81548160ff0219169083151502179055509050507f846ac72b78e41abc17e186276f1e9e4ec776130cf3fddd6c88655d4c958b4508600154826040516103f79291906114ac565b60405180910390a150565b60008054906101000a900473ffffffffffffffffffffffffffffffffffffffff1673ffffffffffffffffffffffffffffffffffffffff163373ffffffffffffffffffffffffffffffffffffffff1614610490576040517f08c379a000000000000000000000000000000000000000000000000000000000815260040161048790611137565b60405180910390fd5b604051806040016040528082815260200160011515815250600260008473ffffffffffffffffffffffffffffffffffffffff1673ffffffffffffffffffffffffffffffffffffffff16815260200190815260200160002060008201518160000190816104fc91906113da565b5060208201518160010160006101000a81548160ff0219169083151502179055509050507fc1b20826100814ba286ac576fe980df1dbbcef3d904bb81f3d69a0e8280dc11482826040516105519291906114dc565b60405180910390a15050565b60006004600084815260200190815260200160002060008373ffffffffffffffffffffffffffffffffffffffff1673ffffffffffffffffffffffffffffffffffffffff16815260200190815260200160002060009054906101000a900460ff16905092915050565b6060600080600360008581526020019081526020016000206040518060400160405290816000820180546105f8906111fd565b80601f0160208091040260200160405190810160405280929190818152602001828054610624906111fd565b80156106715780601f1061064657610100808354040283529160200191610671565b820191906000526020600020905b81548152906001019060200180831161065457829003601f168201915b505050505081526020016001820160009054906101000a900460ff1615151515815250509050806000015181602001519250925050915091565b6060600080600260008573ffffffffffffffffffffffffffffffffffffffff1673ffffffffffffffffffffffffffffffffffffffff16815260200190815260200160002060405180604001604052908160008201805461070a906111fd565b80601f0160208091040260200160405190810160405280929190818152602001828054610736906111fd565b80156107835780601f1061075857610100808354040283529160200191610783565b820191906000526020600020905b81548152906001019060200180831161076657829003601f168201915b505050505081526020016001820160009054906101000a900460ff1615151515815250509050806000015181602001519250925050915091565b60015481565b60036020528060005260406000206000915090508060000180546107e6906111fd565b80601f0160208091040260200160405190810160405280929190818152602001828054610812906111fd565b801561085f5780601f106108345761010080835404028352916020019161085f565b820191906000526020600020905b81548152906001019060200180831161084257829003601f168201915b5050505050908060010160009054906101000a900460ff16905082565b60008054906101000a900473ffffffffffffffffffffffffffffffffffffffff1681565b60008054906101000a900473ffffffffffffffffffffffffffffffffffffffff1673ffffffffffffffffffffffffffffffffffffffff163373ffffffffffffffffffffffffffffffffffffffff161461092e576040517f08c379a000000000000000000000000000000000000000000000000000000000815260040161092590611137565b60405180910390fd5b60006003600083815260200190815260200160002060010160006101000a81548160ff0219169083151502179055507f737ea773789756155ce4ec81b73f88f21c918501c8bbb06721a6c6c46beb11c28160405161098c91906110a6565b60405180910390a150565b60026020528060005260406000206000915090508060000180546109ba906111fd565b80601f01602080910402602001604051908101604052809291908181526020018280546109e6906111fd565b8015610a335780601f10610a0857610100808354040283529160200191610a33565b820191906000526020600020905b815481529060010190602001808311610a1657829003601f168201915b5050505050908060010160009054906101000a900460ff16905082565b600260003373ffffffffffffffffffffffffffffffffffffffff1673ffffffffffffffffffffffffffffffffffffffff16815260200190815260200160002060010160009054906101000a900460ff16610adf576040517f08c379a0000000000000000000000000000000000000000000000000000000008152600401610ad690611558565b60405180910390fd5b6003600082815260200190815260200160002060010160009054906101000a900460ff16610b42576040517f08c379a0000000000000000000000000000000000000000000000000000000008152600401610b39906115c4565b60405180910390fd5b6004600082815260200190815260200160002060003373ffffffffffffffffffffffffffffffffffffffff1673ffffffffffffffffffffffffffffffffffffffff16815260200190815260200160002060009054906101000a900460ff1615610be0576040517f08c379a0000000000000000000000000000000000000000000000000000000008152600401610bd790611630565b60405180910390fd5b60016004600083815260200190815260200160002060003373ffffffffffffffffffffffffffffffffffffffff1673ffffffffffffffffffffffffffffffffffffffff16815260200190815260200160002060006101000a81548160ff0219169083151502179055507f9e5d24579183fa37d9de3c53c170caae77e5ea5a3ed2c66fdd356f590ff779f48133604051610c7a929190611650565b60405180910390a150565b6000604051905090565b600080fd5b600080fd5b6000819050919050565b610cac81610c99565b8114610cb757600080fd5b50565b600081359050610cc981610ca3565b92915050565b600073ffffffffffffffffffffffffffffffffffffffff82169050919050565b6000610cfa82610ccf565b9050919050565b610d0a81610cef565b8114610d1557600080fd5b50565b600081359050610d2781610d01565b92915050565b60008060408385031215610d4457610d43610c8f565b5b6000610d5285828601610cba565b9250506020610d6385828601610d18565b9150509250929050565b60008115159050919050565b610d8281610d6d565b82525050565b6000602082019050610d9d6000830184610d79565b92915050565b600080fd5b600080fd5b6000601f19601f8301169050919050565b7f4e487b7100000000000000000000000000000000000000000000000000000000600052604160045260246000fd5b610df682610dad565b810181811067ffffffffffffffff82111715610e1557610e14610dbe565b5b80604052505050565b6000610e28610c85565b9050610e348282610ded565b919050565b600067ffffffffffffffff821115610e5457610e53610dbe565b5b610e5d82610dad565b9050602081019050919050565b82818337600083830152505050565b6000610e8c610e8784610e39565b610e1e565b905082815260208101848484011115610ea857610ea7610da8565b5b610eb3848285610e6a565b509392505050565b600082601f830112610ed057610ecf610da3565b5b8135610ee0848260208601610e79565b91505092915050565b600060208284031215610eff57610efe610c8f565b5b600082013567ffffffffffffffff811115610f1d57610f1c610c94565b5b610f2984828501610ebb565b91505092915050565b60008060408385031215610f4957610f48610c8f565b5b6000610f5785828601610d18565b925050602083013567ffffffffffffffff811115610f7857610f77610c94565b5b610f8485828601610ebb565b9150509250929050565b600060208284031215610fa457610fa3610c8f565b5b6000610fb284828501610cba565b91505092915050565b600081519050919050565b600082825260208201905092915050565b60005b83811015610ff5578082015181840152602081019050610fda565b60008484015250505050565b600061100c82610fbb565b6110168185610fc6565b9350611026818560208601610fd7565b61102f81610dad565b840191505092915050565b600060408201905081810360008301526110548185611001565b90506110636020830184610d79565b9392505050565b6000602082840312156110805761107f610c8f565b5b600061108e84828501610d18565b91505092915050565b6110a081610c99565b82525050565b60006020820190506110bb6000830184611097565b92915050565b6110ca81610cef565b82525050565b60006020820190506110e560008301846110c1565b92915050565b7f4e6f74206f776e65720000000000000000000000000000000000000000000000600082015250565b6000611121600983610fc6565b915061112c826110eb565b602082019050919050565b6000602082019050818103600083015261115081611114565b9050919050565b7f4e487b7100000000000000000000000000000000000000000000000000000000600052601160045260246000fd5b600061119182610c99565b91507fffffffffffffffffffffffffffffffffffffffffffffffffffffffffffffffff82036111c3576111c2611157565b5b600182019050919050565b7f4e487b7100000000000000000000000000000000000000000000000000000000600052602260045260246000fd5b6000600282049050600182168061121557607f821691505b602082108103611228576112276111ce565b5b50919050565b60008190508160005260206000209050919050565b60006020601f8301049050919050565b600082821b905092915050565b6000600883026112907fffffffffffffffffffffffffffffffffffffffffffffffffffffffffffffffff82611253565b61129a8683611253565b95508019841693508086168417925050509392505050565b6000819050919050565b60006112d76112d26112cd84610c99565b6112b2565b610c99565b9050919050565b6000819050919050565b6112f1836112bc565b6113056112fd826112de565b848454611260565b825550505050565b600090565b61131a61130d565b6113258184846112e8565b505050565b5b818110156113495761133e600082611312565b60018101905061132b565b5050565b601f82111561138e5761135f8161122e565b61136884611243565b81016020851015611377578190505b61138b61138385611243565b83018261132a565b50505b505050565b600082821c905092915050565b60006113b160001984600802611393565b1980831691505092915050565b60006113ca83836113a0565b9150826002028217905092915050565b6113e382610fbb565b67ffffffffffffffff8111156113fc576113fb610dbe565b5b61140682546111fd565b61141182828561134d565b600060209050601f8311600181146114445760008415611432578287015190505b61143c85826113be565b8655506114a4565b601f1984166114528661122e565b60005b8281101561147a57848901518255600182019150602085019450602081019050611455565b868310156114975784890151611493601f8916826113a0565b8355505b6001600288020188555050505b505050505050565b60006040820190506114c16000830185611097565b81810360208301526114d38184611001565b90509392505050565b60006040820190506114f160008301856110c1565b81810360208301526115038184611001565b90509392505050565b7f4e6f742072656769737465726564000000000000000000000000000000000000600082015250565b6000611542600e83610fc6565b915061154d8261150c565b602082019050919050565b6000602082019050818103600083015261157181611535565b9050919050565b7f53657373696f6e20636c6f736564000000000000000000000000000000000000600082015250565b60006115ae600e83610fc6565b91506115b982611578565b602082019050919050565b600060208201905081810360008301526115dd816115a1565b9050919050565b7f416c726561647920617474656e64656400000000000000000000000000000000600082015250565b600061161a601083610fc6565b9150611625826115e4565b602082019050919050565b600060208201905081810360008301526116498161160d565b9050919050565b60006040820190506116656000830185611097565b61167260208301846110c1565b939250505056fea2646970667358221220924e726c1f599cefdd8fc927d061ace0ae4e946a78b22e30b56516116e8e33b364736f6c63430008130033",
  "linkReferences": {},
  "deployedLinkReferences": {},
  "immutableReferences": {},
  "inputSourceName": "project/contracts/AttendanceSystem.sol",
  "buildInfoId": "solc-0_8_19-23d51c122cb2e15bd8f4d51bd09984f63dfa4af8"
}